:100000000EC028C027C026C025C024C023C022C0DF
:1000100021C020C01FC01EC01DC01CC01BC0112499
:100020001FBECFE5D1E0DEBFCDBF10E0A0E6B0E05F
:10003000E8E9F6E002C005900D92A237B107D9F7C2
:1000400020E0A2E7B0E001C01D92A737B207E1F7B8
:1000500043D020C3D5CF009739F022E02A95F1F79D
:1000600000C001970097C9F7089590917200691335
:100070000EC048B321E030E0B90102C0660F771F1F
:100080008A95E2F7CB018095842388BB089548B315
:1000900021E030E0B90102C0660F771F8A95E2F7D0
:1000A000CB01842B88BB08951F93CF93DF93EC0182
:1000B000162F60916000812FD8DFCE01CCDF6091D8
:1000C0007200812FD2DF8FEF90E08C1B9D0BC3DF7E
:1000D000DF91CF911F910895B89AB99ABA9ABC9AB4
:1000E000EE24E394F12C0EEB10E0109276001092C7
:1000F000750048C1E0917500F0917600EE0FFF1F8A
:10010000E759FF4F60817181CE01CEDF60916500BC
:10011000709166008091670090916800ABD1CB012F
:100120009ADF2196CE3BD10529F7C02FD12FE09140
:100130007500F0917600EE0FFF1FE759FF4F6081C9
:100140007181CE01B1DF6091650070916600809190
:100150006700909168009B01AC011FD18BD1CB014E
:100160007ADF2197C130D10511F7C0916300D0919A
:1001700064002196D0936400C0936300C131D1051F
:10018000ACF020E030E040EC5FE3609165007091FE
:100190006600809167009091680011D260936500BD
:1001A000709366008093670090936800A1970CF4A9
:1001B000DDC080E090E0A0E8BFE38093650090930D
:1001C0006600A0936700B0936800109264001092DC
:1001D00063001092740010927300109262001092EB
:1001E0006100C1E0D0E080916300909164000196CD
:1001F000909364008093630004970CF4C6C08091D0
:10020000730090917400892BB1F420E030E040E05D
:1002100050E4609165007091660080916700909154
:100220006800BBD0609365007093660080936700A0
:100230009093680015C020E030E040E050E4609109
:100240006500709166008091670090916800A4D06D
:1002500060936500709366008093670090936800D8
:10026000109264001092630020E030E04AE753E40B
:1002700060916500709166008091670090916800C0
:100280009AD1882324F0D0937400C0937300109205
:100290007600109275007DC0880F991FFC01E75908
:1002A000FF4F00811181609165007091660080911F
:1002B000670090916800D9D0DC01CB01B801F4DE71
:1002C00080917500909176000196909376008093CE
:1002D00075008430910504F320E030E040E85FE3EE
:1002E0006091650070916600809167009091680050
:1002F000B8D081110DC08091730090917400019766
:1003000039F481E090E0909362008093610007C02F
:100310008091610090916200892B09F464CF109262
:1003200076001092750080E090E0FC01EE0FFF1F58
:10033000E759FF4F60917200808197DE80917500D0
:1003400090917600019690937600809375008430AA
:1003500091055CF385B7877E806185BF85B7806234
:1003600085BF889585B78F7D85BFD9CF8091750072
:100370009091760001969093760080937500049793
:100380000CF0B3CECE2DDF2DB5CE109276001092AC
:10039000750080E090E080CF5058BB27AA270ED090
:1003A000D0C0C1D030F0C6D020F031F49F3F11F45E
:1003B0001EF4B6C00EF4E095E7FBACC0E92FD2D036
:1003C00080F3BA17620773078407950718F071F472
:1003D0009EF5EAC00EF4E0950B2EBA2FA02D0B016E
:1003E000B90190010C01CA01A0011124FF27591B7A
:1003F00099F0593F50F4503E68F11A16F040A22F80
:10040000232F342F4427585FF3CF469537952795F0
:10041000A795F0405395C9F77EF41F16BA0B620BEF
:10042000730B840BBAF09150A1F0FF0FBB1F661F36
:10043000771F881FC2F70EC0BA0F621F731F841F79
:1004400048F4879577956795B795F7959E3F08F09F
:10045000B3CF9395880F08F09927EE0F979587955E
:10046000089534D008F481E0089504D06894B1115F
:100470009CC008957FD088F09F5790F0B92F99279E
:10048000B751A0F0D1F0660F771F881F991F1AF09F
:10049000BA95C9F712C0B13081F086D0B1E00895A5
:1004A00083C0672F782F8827B85F39F0B93FCCF326
:1004B000869577956795B395D9F73EF49095809595
:1004C000709561957F4F8F4F9F4F0895990F00084A
:1004D000550FAA0BE0E8FEEF16161706E807F90716
:1004E000C0F012161306E407F50798F0621B730BB1
:1004F000840B950B39F40A2661F0232B242B252B32
:1005000021F408950A2609F4A140A6958FEF811DD4
:10051000811D089597F99F6780E870E060E0089575
:100520009FEF80EC089500240A941616170618060B
:100530000906089500240A941216130614060506E7
:100540000895092E0394000C11F4882352F0BB0F78
:1005500040F4BF2B11F460FF04C06F5F7F4F8F4FDB
:100560009F4F089557FD9058440F551F59F05F3F16
:1005700071F04795880F97FB991F61F09F3F79F0C5
:1005800087950895121613061406551FF2CF469547
:10059000F1DF08C0161617061806991FF1CF8695C9
:1005A0007105610508940895E894BB2766277727AD
:1005B000CB0197F908958ADF08F48FEF08950AD0E8
:1005C000C0CFB1DF28F0B6DF18F0952309F0A2CF35
:1005D000A7CFEBCFC7DFA8F39923D9F35523C9F3EE
:1005E000950F50E0551FAA27EE27FF27BB270024B1
:1005F0000894679520F4E20FF31FB41F0A1E220F20
:10060000331F441FAA1F6695A9F7779530F4F30F9F
:10061000B41F0A1E121E08F46395330F441FAA1F4D
:10062000221F769599F7879520F4B40F0A1E121EA3
:10063000631F440FAA1F221F331F8695A9F7862F19
:10064000712D602D11249F5750408AF0E1F08823CE
:100650004AF0EE0FFF1FBB1F661F771F881F9150C8
:100660005040A9F79E3F510570F054CF9ECF5F3F99
:10067000ECF3983EDCF3869577956795B795F795FB
:10068000E7959F5FC1F7FE2B880F911D9695879583
:0806900097F90895F894FFCFDB
:100698000101000A000000803F0000010002000480
:0206A800000050
:00000001FF
